:020000040800F2
:1000000000500020FD120008F1030008F30300086F
:10001000F5030008F7030008F903000800000000DA
:10002000000000000000000000000000FB030008CA
:10003000FD03000800000000FF03000801040008A1
:100040004513000845130008451300084513000830
:100050004513000845130008451300084513000820
:100060004513000845130008451300084513000810
:100070004513000845130008451300084513000800
:1000800045130008451300084513000845130008F0
:1000900045130008451300084513000845130008E0
:1000A0000904000819040008451300084513000856
:1000B00045130008451300084513000845130008C0
:1000C00045130008451300084513000845130008B0
:1000D00045130008451300084513000845130008A0
:1000E000350400084513000845130008000000000F
:1000F0000000000000000000000000000000000000
:0C01000000000000000000005FF808F1A3
:10010C0010B5054C237833B9044B13B10448AFF345
:10011C0000800123237010BD0C00002000000000A3
:10012C00A013000808B5034B1BB103490348AFF3F8
:10013C00008008BD0000000010000020A013000883
:10014C0070B588B000240494059406940794294B48
:10015C009A6942F010029A619A6902F010020092B8
:10016C00009A9A6942F020029A619A6902F0200280
:10017C000192019A9A6942F004029A619A6902F01A
:10018C0004020292029A9A6942F008029A619B69EF
:10019C0003F008030393039B174D224620212846A6
:1001AC0000F046FB4FF400530493144B0593069454
:1001BC0004A9134800F050FA0C2304930226059668
:1001CC00079604A9284600F047FA2023049301233C
:1001DC0005930694079604A9284600F03DFA22469A
:1001EC002146282000F0E0F9282000F011FA08B090
:1001FC0070BD00BF0010024000080140000021103B
:10020C000010014008B5054B5A6822F47C125A6064
:10021C005A681043586000F00FF908BD00100240F6
:10022C0072B6FEE700B587B00023029303930493E4
:10023C000593009301931548154A026040F21F3252
:10024C004260836042F20F72C2600361436183615A
:10025C0000F074FF98B906A94FF4805341F8103D93
:10026C000A4800F0A1FF60B900230093019369468E
:10027C00064801F007F830B907B05DF804FBFFF74A
:10028C00CFFFFFF7CDFFFFF7CBFF00BF280000200B
:10029C00002C014000B591B02022002107A801F0EC
:1002AC0071F80023019302930393049305930223A3
:1002BC00069301220A9210220B920D934FF44013D5
:1002CC000F9306A800F0E8FA80B90F2301930221DE
:1002DC000291002303934FF480620492059301A8CA
:1002EC0000F01AFD20B911B05DF804FBFFF798FF80
:1002FC00FFF796FF08B500F00DF9FFF7CBFFFFF7FE
:10030C001FFFFFF78FFF114800F0E8FD0020FFF7FB
:10031C0079FF4FF47A7000F021F98020FFF772FF1B
:10032C004FF47A7000F01AF99020FFF76BFF4FF43E
:10033C007A7000F013F9A020FFF764FF4FF47A7085
:10034C0000F00CF9FFF7A6FFE0E700BF2800002043
:10035C0082B00E4B9A6942F001029A619A6902F0DE
:10036C0001020092009ADA6942F08052DA61DB698C
:10037C0003F080530193019B054A536823F0E0631B
:10038C0043F00073536002B0704700BF001002408E
:10039C00000001400268124B9A4200D0704700B531
:1003AC0083B003F564439A6942F400629A619B69D5
:1003BC0003F400630193019B00221146182000F006
:1003CC00F3F8182000F024F900221146192000F04F
:1003DC00EBF8192000F01CF903B05DF804FB00BF2A
:1003EC00002C0140FEE7FEE7FEE7FEE7FEE7704764
:1003FC007047704708B500F09FF808BD08B5024873
:10040C0000F0A5FD08BD00BF2800002008B5202184
:10041C00034800F013FA034800F099FD08BD00BF33
:10042C00000801402800002008B54FF4005000F0EF
:10043C000FFA08BD704700001F4B5B6803F00C03FC
:10044C00042B14D0082B16D01BB11C4B1C4A1A6061
:10045C0002E01A4B1A4A1A60174B5B68C3F303137A
:10046C00184AD15C154A1368CB4013607047134B84
:10047C00134A1A60F0E7104A53685268C3F3834377
:10048C00023312F4803F0AD00B4A526812F4003F38
:10049C000BD00D4A02FB03F3084A1360DCE70A4A4F
:1004AC0002FB03F3054A1360D6E7054A02FB03F38C
:1004BC00024A1360D0E700BF001002400000002089
:1004CC0000127A00B813000800093D0010B504466C
:1004DC000E4B18784FF47A73B3FBF0F30C4A106898
:1004EC00B0FBF3F000F0A2F868B90F2C01D9012091
:1004FC000AE0002221464FF0FF3000F055F8034B84
:10050C005C60002000E0012010BD00BF0400002052
:10051C000000002008B5074A136843F0100313606D
:10052C00032000F02FF80020FFF7D0FFFFF710FF9B
:10053C00002008BD00200240034A1168034B1B78C1
:10054C000B441360704700BF7000002004000020B3
:10055C00014B1868704700BF7000002038B5044686
:10056C00FFF7F6FF0546B4F1FF3F02D0044B1B78B2
:10057C001C44FFF7EDFF401BA042FAD338BD00BF6F
:10058C0004000020074AD36823F4E0631B041B0C0F
:10059C00000200F4E060184340F0BF6040F400300B
:1005AC00D060704700ED00E030B4174BDB68C3F34C
:1005BC000223C3F10704042C28BF04241D1D062D9F
:1005CC0018D9033B4FF0FF3505FA04F421EA040176
:1005DC00994005FA03F322EA0303194300280BDBC5
:1005EC000901C9B200F1604000F5614080F80013C8
:1005FC0030BC70470023E5E700F00F000901C9B2D9
:10060C00024B1954F4E700BF00ED00E014ED00E0DC
:10061C00002807DB00F01F02400901239340024A27
:10062C0042F82030704700BF00E100E00138B0F123
:10063C00807F0AD2064B5860064AF02182F82310BC
:10064C000020986007221A6070470120704700BF95
:10065C0010E000E000ED00E0F0B482B0002632467D
:10066C00A2E0002D5AD0012D00D1CE68FF2B69D805
:10067C008446FF2B69D89500DCF800400F27AF406B
:10068C0024EA070406FA05F52C43CCF800404C6824
:10069C0014F0805F00F087805F4CA56945F0010580
:1006AC00A561A46904F001040194019C9508AF1C98
:1006BC005A4C54F8274002F00307BF004FF00F0CC0
:1006CC000CFA07FC24EA0C0C554CA04243D004F560
:1006DC008064A04200F0818004F58064A0427ED04A
:1006EC0004F58064A04234D0042435E04D4FBD4263
:1006FC0014D00BD94C4FBD4210D007F58037BD42FA
:10070C000CD0A7F58017BD42B0D107E0A7F5801734
:10071C00BD4203D007F58037BD42A7D18D687DB1AE
:10072C00012D08D044610826A0E7CE6808369DE765
:10073C00CE680C369AE70461082697E7002695E701
:10074C00042693E700F1040C93E7A2F10805AD0031
:10075C0092E7032400E00024BC4044EA0C04023578
:10076C002E4F47F825404C6814F4803F39D02F4D5C
:10077C002C681C432C604C6814F4003F37D02B4D74
:10078C006C681C436C604C6814F4801F35D0274D8A
:10079C00AC681C43AC604C6814F4001F33D0234D80
:1007AC00EC682343EB6001320B6833FA02F430D06F
:1007BC000124944023409C42F5D14D68122DB7D0B2
:1007CC0094D8022DB1D07FF64CAF032DB6D0112D9D
:1007DC007FF44CAFCE68043648E70124BCE7022412
:1007EC00BAE7124D2C6824EA03042C60C3E70F4DC2
:1007FC006C6824EA03046C60C5E70C4DAC6824EA11
:10080C000304AC60C7E7094DEC6824EA0303EB6012
:10081C00C9E702B0F0BC7047001002400000014074
:10082C0000080140000021100000311000040140BC
:10083C0012B909040161704701617047C36801EA8C
:10084C00030221EA030141EA02410161704770474A
:10085C0008B5054B5B69034200D108BD024B5861DA
:10086C00FFF7F5FFF9E700BF0004014082B0084B29
:10087C001B68084AA2FB03235B0A00FB03F00190F0
:10088C0000BF019B5A1E0192002BF9D102B0704798
:10089C0000000020D34D6210002800F0F58170B5E7
:1008AC0082B00446036813F0010F2CD0AB4B5B688D
:1008BC0003F00C03042B1DD0A84B5B6803F00C0356
:1008CC00082B12D06368B3F5803F41D0002B55D173
:1008DC0003F1804303F504331A6822F480321A6062
:1008EC001A6822F480221A6037E09C4B5B6813F480
:1008FC00803FE7D0994B1B6813F4003F03D063682B
:10090C00002B00F0C381236813F0020F76D0934BB9
:10091C005B6813F00C0F5FD0904B5B6803F00C031B
:10092C00082B54D02369002B00F08A808C4B0122B9
:10093C001A60FFF70DFE0546884B1B6813F0020F7B
:10094C0075D1FFF705FE401B0228F5D90320A0E165
:10095C00824A136843F480331360636843B3FFF730
:10096C00F7FD05467D4B1B6813F4003FCBD1FFF719
:10097C00EFFD401B6428F5D903208AE1B3F5A02FC5
:10098C0009D0764B1A6822F480321A601A6822F465
:10099C0080221A60E1E703F18043A3F53C331A6827
:1009AC0042F480221A601A6842F480321A60D4E74A
:1009BC00FFF7CEFD0546694B1B6813F4003FA2D030
:1009CC00FFF7C6FD401B6428F5D9032061E1634B9A
:1009DC005B6813F4803FA5D1604B1B6813F0020FCA
:1009EC0004D02369012B01D0012052E15B4A13682A
:1009FC0023F0F803616943EAC1031360236813F021
:100A0C00080F32D0A369002B5BD0564B01221A6021
:100A1C00FFF79EFD0546514B5B6A13F0020F21D187
:100A2C00FFF796FD401B0228F5D9032031E14B4A14
:100A3C00136823F0F803616943EAC1031360DDE72F
:100A4C00474B00221A60FFF783FD0546434B1B689A
:100A5C0013F0020FD2D0FFF77BFD401B0228F5D913
:100A6C00032016E10120FFF701FF236813F0040FA8
:100A7C0000F09880394BDB6913F0805F33D1374B32
:100A8C00DA6942F08052DA61DB6903F0805301933A
:100A9C00019B0125344B1B6813F4807F25D0E36840
:100AAC00012B36D0002B4CD103F1804303F50433DA
:100ABC001A6A22F001021A621A6A22F004021A62FD
:100ACC002CE0284B00221A60FFF742FD0546234B11
:100ADC005B6A13F0020FC8D0FFF73AFD401B0228E7
:100AEC00F5D90320D5E00025D4E71F4A136843F459
:100AFC0080731360FFF72CFD06461B4B1B6813F429
:100B0C00807FCCD1FFF724FD801B6428F5D903200E
:100B1C00BFE0124A136A43F001031362E3687BB32C
:100B2C00FFF716FD06460D4B1B6A13F0020F38D16A
:100B3C00FFF70EFD801B41F288339842F3D9032056
:100B4C00A7E0052B12D0054B1A6A22F001021A629B
:100B5C001A6A22F004021A62E0E700BF0010024099
:100B6C000000424280044242007000404C4B1A6A22
:100B7C0042F004021A621A6A42F001021A62CDE7CC
:100B8C00FFF7E6FC0646464B1B6A13F0020F08D033
:100B9C00FFF7DEFC801B41F288339842F3D9032027
:100BAC0077E0E5B9E369002B72D03D4A526802F058
:100BBC000C02082A56D0022B17D03A4B00221A608E
:100BCC00FFF7C6FC0446364B1B6813F0007F47D07A
:100BDC00FFF7BEFC001B0228F5D9032059E0304A70
:100BEC00D36923F08053D361DCE72E4B00221A60CB
:100BFC00FFF7AEFC05462A4B1B6813F0007F06D0AE
:100C0C00FFF7A6FC401B0228F5D9032041E0236A1C
:100C1C00B3F5803F1AD022494B6823F47413226A2F
:100C2C00606A024313434B601E4B01221A60FFF7AC
:100C3C008FFC04461A4B1B6813F0007F0ED1FFF794
:100C4C0087FC001B0228F5D9032022E0144A5368C4
:100C5C0023F40033A1680B435360DCE7002018E059
:100C6C00002016E0012B16D00D4B5B6803F480318D
:100C7C00226A914201D001200BE003F47013626AE6
:100C8C0093420AD0012004E001207047012000E0CB
:100C9C00002002B070BD0120FBE70020F9E700BF87
:100CAC00001002406000424210B487B0164C94E829
:100CBC000F000DF1180C0CE90F00238AADF804306D
:100CCC00124B5B6803F00C02082A1AD1C3F383425F
:100CDC00624412F8102C13F4803F05D10C4800FB31
:100CEC0002F007B010BC7047084B5B68C3F340437D
:100CFC00634413F8143C074800FB02F0B0FBF3F01C
:100D0C00EFE70448EDE700BFD013000800100240E5
:100D1C0000093D0000127A00002800F0A38070B595
:100D2C000446524B1B6803F007038B420CD24F4A0C
:100D3C00136823F007030B431360136803F00703D6
:100D4C008B4201D0012070BD236813F0020F17D025
:100D5C0013F0040F04D0464A536843F4E063536025
:100D6C00236813F0080F04D0414A536843F46053CE
:100D7C0053603F4A536823F0F003A0680343536069
:100D8C000D46236813F0010F31D06368012B20D07E
:100D9C00022B25D0364A126812F0020F64D0344967
:100DAC004A6822F0030213434B60FFF7D1FB06465F
:100DBC002F4B5B6803F00C036268B3EB820F16D009
:100DCC00FFF7C6FB801B41F288339842F0D9032011
:100DDC00B9E7274A126812F4003FE0D10120B2E7CC
:100DEC00234A126812F0007FD9D10120ABE71F4BC8
:100DFC001B6803F00703AB420CD91C4A136823F0A1
:100E0C0007032B431360136803F00703AB4201D0B5
:100E1C00012098E7236813F0040F06D0144A536896
:100E2C0023F4E063E1680B435360236813F0080F6D
:100E3C0007D00F4A536823F46053216943EAC10376
:100E4C005360FFF731FF0A4B5B68C3F30313094A86
:100E5C00D35CD840084B1860084B1868FFF736FB7A
:100E6C00002070E70120704701206CE70020024051
:100E7C0000100240B81300080000002008000020F9
:100E8C0010B4036A046A24F001040462846924F037
:100E9C00F00444EA021223F00A030B43826103625A
:100EAC0010BC704710B4036A23F01003036284690A
:100EBC00036A24F4704444EA023223F0A00343EAA8
:100ECC0001138261036210BC7047836823F07003C6
:100EDC00194341F0070181607047000090F83D30E4
:100EEC00DBB2012B01D001207047022380F83D308A
:100EFC000268D36843F00103D3600368104A93423D
:100F0C0010D0B3F1804F0DD0A2F59432934209D09A
:100F1C0002F58062934205D01A6842F001021A6011
:100F2C00002070479A6802F00702062A05D01A685A
:100F3C0042F001021A60002070470020704700BF89
:100F4C00002C01407047704770477047704710B5D0
:100F5C00044603681A6912F0020F11D0DA6812F015
:100F6C00020F0DD06FF002021A61012303770368A0
:100F7C009B6913F0030F70D0FFF7E6FF0023237774
:100F8C0023681A6912F0040F12D0DA6812F0040FF9
:100F9C000ED06FF004021A610223237723689B6939
:100FAC0013F4407F5FD02046FFF7CEFF002323775A
:100FBC0023681A6912F0080F12D0DA6812F0080FC1
:100FCC000ED06FF008021A61042323772368DB69C3
:100FDC0013F0030F4ED02046FFF7B6FF0023237704
:100FEC0023681A6912F0100F12D0DA6812F0100F81
:100FFC000ED06FF010021A61082323772368DB6987
:10100C0013F4407F3DD02046FFF79EFF002323774B
:10101C0023681A6912F0010F03D0DA6812F0010F7D
:10102C0036D123681A6912F0800F03D0DA6812F0F7
:10103C00800F34D123681A6912F0400F03D0DA689C
:10104C0012F0400F32D123681A6912F0200F03D02E
:10105C00DA6812F0200F30D110BDFFF774FF204674
:10106C00FFF773FF8AE72046FFF76DFF2046FFF777
:10107C006CFF9BE72046FFF766FF2046FFF765FFF6
:10108C00ACE72046FFF75FFF2046FFF75EFFBDE7AA
:10109C006FF001021A612046FFF754FFC1E76FF0B1
:1010AC0080021A61204600F022F9C3E76FF040027B
:1010BC001A612046FFF74AFFC5E76FF020021A615C
:1010CC00204600F013F9C7E703681B4A90420AD088
:1010DC00B0F1804F07D0A2F59432904203D002F5C4
:1010EC008062904203D123F070034A681343124A82
:1010FC0090420AD0B0F1804F07D0A2F594329042C2
:10110C0003D002F58062904203D123F44073CA6885
:10111C00134323F080034A69134303608B68C36253
:10112C000B688362044B984202D0012343617047E1
:10113C000B690363F9E700BF002C014038B310B50D
:10114C00044690F83D30EBB1022384F83D30211D6C
:10115C002068FFF7B9FF012384F8463084F83E304D
:10116C0084F83F3084F8403084F8413084F84230C1
:10117C0084F8433084F8443084F8453084F83D30AA
:10118C00002010BD80F83C30FFF704F9DCE70120AB
:10119C00704710B4846824F47F4442EA03230B4361
:1011AC002343836010BC704790F83C30012B66D011
:1011BC0010B50446012380F83C30022380F83D3002
:1011CC000268936823F47F4323F0770393600B68E2
:1011DC00402B4AD013D9602B3DD01ED9702B28D070
:1011EC00B3F5005F30D1CB684A6889680068FFF7B7
:1011FC00D0FF2268936843F48043936024E0102B63
:10120C0006D004D9202B03D0302B01D01CE0DBB945
:10121C0019462068FFF759FE16E0502B14D1CA6806
:10122C0049680068FFF72CFE50212068FFF74DFE3F
:10123C000AE0CB684A6889680068FFF7AAFF226851
:10124C00936843F077039360012384F83D300020CA
:10125C0084F83C0010BDCA6849680068FFF722FE9C
:10126C0060212068FFF731FEEEE7CA684968006824
:10127C00FFF706FE40212068FFF727FEE4E7022077
:10128C007047000090F83C30012B2BD030B4012378
:10129C0080F83C30022380F83D3003685C689D6820
:1012AC0024F070040A6822435A6003680E4A934281
:1012BC000AD0B3F1804F07D0A2F59432934203D0F9
:1012CC0002F58062934204D125F080054A681543EB
:1012DC009D60012380F83D30002380F83C30184697
:1012EC0030BC704702207047002C0140704770479B
:1012FC000C480D490D4A002302E0D458C450043365
:10130C00C4188C42F9D30A4A0A4C002301E013603A
:10131C000432A242FBD3FFF78DF800F00FF8FEF772
:10132C00E9FF7047000000200C000020EC130008BF
:10133C000C00002074000020FEE7000070B50025B2
:10134C000C4E0D4CA41BA410A54209D100F022F8A0
:10135C0000250A4E0A4CA41BA410A54205D170BD51
:10136C0056F8253098470135EEE756F82530984762
:10137C000135F2E7E4130008E4130008E413000855
:10138C00E813000803460244934200D1704703F867
:10139C00011BF9E7F8B500BFF8BC08BC9E467047C6
:0C13AC00F8B500BFF8BC08BC9E467047B6
:1013B80000000000000000000102030406070809FD
:1013C80000000000010203040203040506070809DF
:0C13D8000A0B0C0D0E0F1010010200009B
:0413E40031010008CB
:0413E8000D010008EB
:0C13EC000024F4000100000010000000CC
:04000005080012FDE0
:00000001FF
